{
  "contractName": "HashStorage",
  "abi": [
    {
      "constant": false,
      "inputs": [
        {
          "internalType": "string",
          "name": "ipfsHash",
          "type": "string"
        },
        {
          "internalType": "string",
          "name": "fileHash",
          "type": "string"
        },
        {
          "internalType": "string",
          "name": "fileName",
          "type": "string"
        },
        {
          "internalType": "string",
          "name": "fileType",
          "type": "string"
        },
        {
          "internalType": "uint256",
          "name": "dateAdded",
          "type": "uint256"
        }
      ],
      "name": "add",
      "outputs": [],
      "payable": false,
      "stateMutability": "nonpayable",
      "type": "function"
    },
    {
      "constant": true,
      "inputs": [
        {
          "internalType": "string",
          "name": "fileHash",
          "type": "string"
        }
      ],
      "name": "get",
      "outputs": [
        {
          "internalType": "string",
          "name": "ipfsHash",
          "type": "string"
        },
        {
          "internalType": "string",
          "name": "fileName",
          "type": "string"
        },
        {
          "internalType": "string",
          "name": "fileType",
          "type": "string"
        },
        {
          "internalType": "uint256",
          "name": "dateAdded",
          "type": "uint256"
        }
      ],
      "payable": false,
      "stateMutability": "view",
      "type": "function"
    }
  ],
  "bytecode": "0x608060405234801561001057600080fd5b50610932806100206000396000f3fe608060405234801561001057600080fd5b50600436106100365760003560e01c80632ee0015e1461003b578063693ec85e146102c5575b600080fd5b6102c3600480360360a081101561005157600080fd5b810190808035906020019064010000000081111561006e57600080fd5b82018360208201111561008057600080fd5b803590602001918460018302840111640100000000831117156100a257600080fd5b91908080601f016020809104026020016040519081016040528093929190818152602001838380828437600081840152601f19601f8201169050808301925050505050505091929192908035906020019064010000000081111561010557600080fd5b82018360208201111561011757600080fd5b8035906020019184600183028401116401000000008311171561013957600080fd5b91908080601f016020809104026020016040519081016040528093929190818152602001838380828437600081840152601f19601f8201169050808301925050505050505091929192908035906020019064010000000081111561019c57600080fd5b8201836020820111156101ae57600080fd5b803590602001918460018302840111640100000000831117156101d057600080fd5b91908080601f016020809104026020016040519081016040528093929190818152602001838380828437600081840152601f19601f8201169050808301925050505050505091929192908035906020019064010000000081111561023357600080fd5b82018360208201111561024557600080fd5b8035906020019184600183028401116401000000008311171561026757600080fd5b91908080601f016020809104026020016040519081016040528093929190818152602001838380828437600081840152601f19601f820116905080830192505050505050509192919290803590602001909291905050506104d8565b005b61037e600480360360208110156102db57600080fd5b81019080803590602001906401000000008111156102f857600080fd5b82018360208201111561030a57600080fd5b8035906020019184600183028401116401000000008311171561032c57600080fd5b91908080601f016020809104026020016040519081016040528093929190818152602001838380828437600081840152601f19601f8201169050808301925050505050505091929192905050506105f0565b60405180806020018060200180602001858152602001848103845288818151815260200191508051906020019080838360005b838110156103cc5780820151818401526020810190506103b1565b50505050905090810190601f1680156103f95780820380516001836020036101000a031916815260200191505b50848103835287818151815260200191508051906020019080838360005b83811015610432578082015181840152602081019050610417565b50505050905090810190601f16801561045f5780820380516001836020036101000a031916815260200191505b50848103825286818151815260200191508051906020019080838360005b8381101561049857808201518184015260208101905061047d565b50505050905090810190601f1680156104c55780820380516001836020036101000a031916815260200191505b5097505050505050505060405180910390f35b6040518060a00160405280868152602001858152602001848152602001838152602001828152506000856040518082805190602001908083835b602083106105355780518252602082019150602081019050602083039250610512565b6001836020036101000a03801982511681845116808217855250505050505090500191505090815260200160405180910390206000820151816000019080519060200190610584929190610858565b5060208201518160010190805190602001906105a1929190610858565b5060408201518160020190805190602001906105be929190610858565b5060608201518160030190805190602001906105db929190610858565b50608082015181600401559050505050505050565b60608060606000806000866040518082805190602001908083835b6020831061062e578051825260208201915060208101905060208303925061060b565b6001836020036101000a038019825116818451168082178552505050505050905001915050908152602001604051809103902090508060000181600201826003018360040154838054600181600116156101000203166002900480601f0160208091040260200160405190810160405280929190818152602001828054600181600116156101000203166002900480156107095780601f106106de57610100808354040283529160200191610709565b820191906000526020600020905b8154815290600101906020018083116106ec57829003601f168201915b50505050509350828054600181600116156101000203166002900480601f0160208091040260200160405190810160405280929190818152602001828054600181600116156101000203166002900480156107a55780601f1061077a576101008083540402835291602001916107a5565b820191906000526020600020905b81548152906001019060200180831161078857829003601f168201915b50505050509250818054600181600116156101000203166002900480601f0160208091040260200160405190810160405280929190818152602001828054600181600116156101000203166002900480156108415780601f1061081657610100808354040283529160200191610841565b820191906000526020600020905b81548152906001019060200180831161082457829003601f168201915b505050505091509450945094509450509193509193565b828054600181600116156101000203166002900490600052602060002090601f016020900481019282601f1061089957805160ff19168380011785556108c7565b828001600101855582156108c7579182015b828111156108c65782518255916020019190600101906108ab565b5b5090506108d491906108d8565b5090565b6108fa91905b808211156108f65760008160009055506001016108de565b5090565b9056fea265627a7a7231582027651392662e059ab2a3e157df826e3462993ee8e6664faee1f5d256d3e6806c64736f6c63430005100032",
  "source": "// SPDX-License-Identifier: MIT\r\npragma solidity >=0.4.21 <0.7.0;\r\n\r\ncontract HashStorage {\r\n    struct File {\r\n        string ipfsHash;\r\n        string fileHash;\r\n        string fileName;\r\n        string fileType;\r\n        uint256 dateAdded;\r\n    }\r\n\r\n    mapping(string => File) private files;\r\n\r\n    function add(string memory ipfsHash, string memory fileHash, string memory fileName, string memory fileType, uint256 dateAdded) public {\r\n        files[fileHash] = File(ipfsHash, fileHash, fileName, fileType, dateAdded);\r\n    }\r\n\r\n    function get(string memory fileHash) public view returns (string memory ipfsHash, string memory fileName, string memory fileType, uint256 dateAdded) {\r\n        File storage file = files[fileHash];\r\n        return (file.ipfsHash, file.fileName, file.fileType, file.dateAdded);\r\n    }\r\n}\r\n",
  "sourcePath": "C:\\Users\\Alsaba\\OneDrive\\Documents\\Final-FYP2\\Final-FYP2\\Final-FYP2\\eth\\contracts\\HashStorage.sol",
  "compiler": {
    "name": "solc",
    "version": "0.5.16+commit.9c3226ce.Emscripten.clang"
  },
  "schemaVersion": "3.4.13",
  "updatedAt": "2023-04-09T11:10:57.752Z",
  "networkType": "ethereum",
  "devdoc": {
    "methods": {}
  },
  "userdoc": {
    "methods": {}
  }
}